:020000040000FA
:1000000080311E28FF3FFF3F80312000111C09284E
:100010000A281D280130DA070030DB3D0C1C1128AE
:1000200012281528D801D9011A280130D807003024
:10003000D93D1A2811101D281D2809008801853175
:10004000992D8131632981317E2981319A2981312C
:10005000B6298131D2298131EE2982310B2A8231B0
:10006000162A8431C12480318231AB2280312000B4
:10007000D801D9013B2801302000DC070030DD3DEC
:100080005C080339F7007708E3006308203E860028
:10009000870100300C1A013081006308243E86007D
:1000A000870100308E19013081006308283E8600E8
:1000B000870100308E1B0130810063082C3E8600D2
:1000C000870100300E18013081006308303E860041
:1000D000870100300E19013081006308343E86002C
:1000E000870100308D1A0130810000308C1C0130F6
:1000F000F7006308383E86008701770881000030EA
:100100000C1C0130F70063083C3E8600870177082D
:1001100081006308033E0339F7007708DF006308B6
:10012000023E0339F7007708DE006308403E860090
:10013000870100308C19013081006308443E86003D
:10014000870100300E1B013081006308483E8600A5
:10015000870100308D1B0130810063084C3E860012
:10016000870100308E18013081006308503E860000
:10017000870100300D1A013081006308543E86006B
:10018000870100300D1B01308100E1010830610260
:10019000031CCB28CC28CE28382A382AE20102308A
:1001A000F7007708E00004306002031CD828D92843
:1001B000DB28FD28FD286108F7000230F735890BA0
:1001C000DE2820307707F8006003FF3A6307043E1B
:1001D00003397807F9007908860087010108FA00D9
:1001E0007A08E2070130F7007708E0070430600280
:1001F000031CFB28FC28DB28FD286208023A031DAB
:10020000022903292D2A6108F7000230F735890BEE
:10021000062920307707F8005F087807F900790889
:10022000860087018108031D162917292D2A6108D8
:10023000F7000230F735890B1A2920307707F800CC
:1002400063087807F9007908860087018108031D93
:100250002A292B292D2AE2010630610203183129AF
:100260003229212AE00104306002031C382939298F
:100270003B29592959296108F7000230F735890BC4
:100280003E2940307707F80060087807F9007908C0
:10029000860087010108FA007A08E2070130F700BA
:1002A0007708E00704306002031C572958293B29CE
:1002B00059290230620203185E295F29212AE201CE
:1002C000212A212A212A6208031D67297329692905
:1002D0006929111E6C296D2969296E29573023005F
:1002E0009A002D2A73292000111E77297829732955
:1002F0007929513023009A002D2A2D2A20006208E6
:10030000031D83298F2985298529111E882989297B
:1003100085298A29413023009A002D2A8F2920001F
:10032000111E932994298F299529533023009A006F
:100330002D2A2D2A20006208031D9F29AB29A129FF
:10034000A129111EA429A529A129A6295A302300D3
:100350009A002D2AAB292000111EAF29B029AB2904
:10036000B129583023009A002D2A2D2A2000620836
:10037000031DBB29C729BD29BD29111EC029C129BB
:10038000BD29C229523023009A002D2AC7292000F6
:10039000111ECB29CC29C729CD29453023009A002D
:1003A0002D2A2D2A20006208031DD729E329D929E7
:1003B000D929111EDC29DD29D929DE29463023005F
:1003C0009A002D2AE3292000111EE729E829E329B4
:1003D000E929443023009A002D2A2D2A20006208A2
:1003E000031DF329FF29F529F529111EF829F929FB
:1003F000F529FA29563023009A002D2AFF292000DA
:10040000111E032A042AFF29052A433023009A00DB
:100410002D2A2D2A0B2A2000111E0F2A102A0B2A02
:10042000112A543023009A002D2A162A2000111E6A
:100430001A2A1B2A162A1C2A473023009A002D2A22
:100440002D2A2000610884000830040203182D2A98
:1004500080310435213E82002D2A0130F7007708D3
:100460002000E10708306102031C372A382ACE2811
:100470000C1D3B2A3C2A3F2ADA01DB013F2A0130CE
:100480005B022D3003195A020318472A482A512AC1
:1004900000305902073003195802031C502A512A10
:1004A0003B280C1D542A552AA02A572A572A111EC8
:1004B0005A2A5B2A572A5C2A243023009A00602A91
:1004C0002000111E642A652A602A662A243023002F
:1004D0009A006A2A2000111E6E2A6F2A6A2A702A40
:1004E000243023009A001030F0002730F1008531CD
:1004F000822580317B2A2000111E7F2A802A7B2AB8
:10050000812A4B3023009A00852A2000111E892A57
:100510008A2A852A8B2A2C3023009A008F2A2000D1
:10052000111E932A942A8F2A952A0D3023009A00AF
:100530003030F0007530F100853182258031A02AFD
:100540008531552580318431C12480313B283B28B9
:100550003B2880311E2820008C16F501F601760814
:10056000803AFF0080307F02031DB82A05307502F3
:10057000031CBB2ABC2ABE2AD82AD82A3030F00055
:100580007530F1008531822582310130F507003068
:10059000F63D7608803AFF0080307F02031DD22AA4
:1005A00005307502031CD52AD62ABE2AD82AD82A95
:1005B0002000111EDC2ADD2AD82ADE2A243023005E
:1005C0009A00E22A2000111EE62AE72AE22AE82AF7
:1005D000243023009A00EC2A2000111EF02AF12A70
:1005E000EC2AF22A243023009A001030F000273041
:1005F000F100853182258231FD2A2000111E012B58
:10060000022BFD2A032B533023009A00072B2000D6
:10061000111E0B2B0C2B072B0D2B2D3023009A00BA
:10062000112B2000111E152B162B112B172B2C30E4
:1006300023009A001B2B2000111E1F2B202B1B2B8D
:10064000212B423023009A00252B2000111E292B3C
:100650002A2B252B2B2B543023009A002F2B2000E4
:10066000111E332B342B2F2B352B643023009A0093
:10067000392B2000111E3D2B3E2B392B3F2B69308F
:1006800023009A00432B2000111E472B482B432B9D
:10069000492B613023009A004D2B2000111E512B55
:1006A000522B4D2B532B6C3023009A00572B2000DC
:1006B000111E5B2B5C2B572B5D2B733023009A0094
:1006C000612B2000111E652B662B612B672B0D30D3
:1006D00023009A001030F0002730F1008531822588
:1006E0008231722B2000111E762B772B722B782BE8
:1006F000533023009A007C2B2000111E802B812B6D
:100700007C2B822B4D3023009A00862B2000111E5B
:100710008A2B8B2B862B8C2B2C3023009A00902B32
:100720002000111E942B952B902B962B30302300FC
:100730009A009A2B2000111E9E2B9F2B9A2BA02BE8
:100740000D3023009A001030F0002730F100853181
:1007500082258231AB2B2000111EAF2BB02BAB2B8F
:10076000B12B533023009A00B52B2000111EB92B5A
:10077000BA2BB52BBB2B7E3023009A00BF2B200059
:10078000111EC32BC42BBF2BC52B2C3023009A006A
:10079000C92B2000111ECD2BCE2BC92BCF2B3030D7
:1007A00023009A00D32B2000111ED72BD82BD32B3C
:1007B000D92B0D3023009A001030F0002730F100C3
:1007C00085318225823120000C18E72BE82B412C43
:1007D000EA2BEA2B111EED2BEE2BEA2BEF2B5330DD
:1007E00023009A00F32B2000111EF72BF82BF32B7C
:1007F000F92B573023009A00FD2B2000111E012CED
:10080000022CFD2B032C2C3023009A00072C2000F7
:10081000111E0B2C0C2C072C0D2C303023009A00B1
:10082000112C2000111E152C162C112C172C3030D9
:1008300023009A001B2C2000111E1F2C202C1B2C87
:10084000212C303023009A00252C2000111E292C49
:100850002A2C252C2B2C303023009A002F2C200002
:10086000111E332C342C2F2C352C0D3023009A00E4
:100870001030F0002730F100853182258231992C2B
:10088000412C2000111E452C462C412C472C533066
:1008900023009A004B2C2000111E4F2C502C4B2C67
:1008A000512C573023009A00552C2000111E592C32
:1008B0005A2C552C5B2C2C3023009A005F2C2000E6
:1008C000111E632C642C5F2C652C303023009A00A1
:1008D000692C2000111E6D2C6E2C692C6F2C33306E
:1008E00023009A00732C2000111E772C782C732C77
:1008F000792C323023009A007D2C2000111E812C8F
:10090000822C7D2C832C303023009A00872C2000F1
:10091000111E8B2C8C2C872C8D2C0D3023009A00D3
:100920001030F0002730F100853182258231992C7A
:10093000992C2000111E9D2C9E2C992C9F2C5230FE
:1009400023009A00A32C2000111EA72CA82CA32C56
:10095000A92C2C3023009A00AD2C2000111EB12CA4
:10096000B22CAD2CB32C313023009A00B72C2000D0
:10097000111EBB2CBC2CB72CBD2C0D3023009A00B3
:10098000080021009913190887397038990022004E
:100990009D171D152000DC01DD01F40108307402F3
:1009A000031CD32CD42CD62C1E2D1E2DF301043069
:1009B0007302031CDC2CDD2CDF2C132D132D74088B
:1009C000F0000230F035890BE22C20307007F10086
:1009D00073087107F2007208860087018101031411
:1009E000810D063074020318F62CF72C082D7408BC
:1009F000F0000230F035890BFA2C40307007F1001E
:100A000073087107F2007208860087018101082DC2
:100A10000130F0007008F30704307302031C112D3D
:100A2000122DDF2C132D0130F0007008F407083070
:100A30007402031C1C2D1D2DD62C1E2D2000DA0146
:100A4000DB01D801D9013F30980518169816981186
:100A50009913970196011814210011140B178B1785
:100A600023008C018D018E01DF3027008E002100D4
:100A700095131B3024008C00F0308D00EF308E0079
:100A8000DF3021008C00FF308D00FF308E00200011
:100A90008C1623009C010C309B001E119F111F1609
:100AA0001E129D171E139E160800873021009905FF
:100AB00020001810210011100B138B1323009D131D
:100AC0009E12033024008C008D0120308E00FF30F8
:100AD00021008C00FE3023008C00FF308D00FF30A1
:100AE0008E00722D20000C1C762D772D722D782D06
:100AF0002700930112148B156300270012108B112D
:100B000093010800F301F401892D0130F30700304F
:100B1000F43D7408803AF2007108803A7202031DB5
:100B2000932D70087302031C962D972D852D982DFB
:100B3000080020308400003085003E308531A42537
:100B40008531200080313128640080010131890B1A
:100B5000A52D0034FF3FFF3FFF3FFF3FFF3FFF3F1B
:100B6000FF3FFF3FFF3FFF3FFF3FFF3FFF3FFF3F95
:100B7000FF3FFF3FFF3FFF3FFF3FFF3FFF3FFF3F85
:100B8000FF3FFF3FFF3FFF3FFF3FFF3FFF3FFF3F75
:100B9000FF3FFF3FFF3FFF3FFF3FFF3FFF3FFF3F65
:020000040001F9
:04000E0084C9FFDCC6
:00000001FF
